:020000040000FA
:10000000000000EB240000EB2C008FE2000C90E8D5
:1000100000A08AE000B08BE001704AE20B005AE1D8
:100020000000001A1C0000EB0F00BAE818E04FE2D5
:10003000010013E303F0471013FF2FE13802000023
:10004000480200000030B0E30040B0E30050B0E3ED
:100050000060B0E3102052E27800A128FCFFFF8A84
:10006000822EB0E13000A128003081451EFF2FE133
:1000700001C08FE21CFF2FE11FB5059886460FBC1B
:10008000009C02B07047000001C08FE21CFF2FE10E
:1000900030B47546AE4630BC704700001A0000EB25
:1000A0000210A0E1F1FFFFEB1CC09FE50FC08CE048
:1000B00001001CE30DE08F120FE0A0011CFF2FE1F7
:1000C00001C08FE21CFF2FE100F050F82401000076
:1000D0007847C04603002DE9EAFFFFEB0300BDE8C7
:1000E000290000EB0C009FE50C109FE504209FE524
:1000F00008309FE51EFF2FE16000004060040040D3
:100100006000004070477047704700000E50A0E14B
:100110001A0000EB05E0A0E10050B0E10D10A0E1F5
:100120000A30A0E10700C0E300D0A0E160D08DE27A
:1001300020402DE9EAFFFFEB2040BDE80060A0E38E
:100140000070A0E30080A0E300B0A0E30710C1E3CB
:1001500005C0A0E1C009ACE8C009ACE8C009ACE842
:10016000C009ACE801D0A0E11EFF2FE110B50400EA
:10017000C046C0462000FFF7ABFF10BC08BC1847C4
:1001800000009FE51EFF2FE10000004001C08FE24C
:100190001CFF2FE101491820ABDFFEE7260002001B
:1001A0001EFF2FE10020A0E30010A0E30000A0E16B
:1001B000050000EA0010A0E3000000EA011081E25F
:1001C000530F51E3FCFFFF9A012082E2000052E14D
:1001D000F7FFFF3A1EFF2FE10000A0E388109FE524
:1001E000000081E5040081E5140081E50000E0E302
:1001F000A018C1E1080081E5180081E5190000EAB6
:100200000140A0E30050A0E3070000EA5C009FE586
:10021000044080E56400A0E3E1FFFFEB4C009FE5B4
:100220000C4080E58440A0E1015085E2200055E3C8
:10023000F5FFFFBA0148A0E30050A0E3070000EA81
:1002400028009FE5144080E56400A0E3D4FFFFEBA5
:1002500018009FE51C4080E58440A0E1015085E244
:10026000100055E3F5FFFFBAE4FFFFEA00C002E02B
:10027000008002E08402000000000040E80400006A
:040280004400000036
:0400000500000000F7
:00000001FF
